:0A0000000C945A000C9400000C94BC
:10000A0000000C9400000C9400000C9400000C9466
:10001A0000000C9400000C9400000C9422010C9433
:10002A0000000C948A000C9400000C94BC000C9400
:10003A0000000C9400000C9400000C9400000C9436
:10004A0000000C9400000C9400001027E8036400E0
:10005A000A00010000100001100001000000090060
:10006A00010005000400060002000A0008009010C2
:10007A0050406020A080901050406020A0800D0069
:10008A00000000000100020066000F007001680015
:10009A0008008001780008008801800001009001B2
:1000AA00880004000A008A000000F894EE27ECBBDE
:1000BA00F1E0FBBFEBBFE5BFF8E1F1BDE1BD8DE0CB
:1000CA00A2E0BB27ED938A95E9F780E094E0A0E6E9
:1000DA00ED930197E9F7EEE8F0E0859195910097A5
:1000EA0061F0A591B59105901590BF01F0010590B9
:1000FA000D920197E1F7FB01F0CFEFE5EDBFE4E0E8
:10010A00EEBFC0E6D1E00C944501EA93FA93EFB74B
:10011A00EA931A930A931BB10CB1E12FEC7189F49B
:10012A00E52D5394F0E0E05AFE4F0083E8E0E51530
:10013A0009F455247394E8E0E71519F477246894D0
:10014A0020F80991199125C01A937720F1F3E42D2B
:10015A004394F0E0E05AFE4F1081E8E0E41509F418
:10016A004424F8947A947894E12F19910895EA93A3
:10017A00FA93EFB7EA93882061F08A94E92D939471
:10018A00F0E0E859FE4FE081ECB9E8E0E91509F43E
:10019A009924E991EFBFF991E99118950E94B70165
:1001AA000E94BE0128F40E94C3010F5F1F4FF8CFBF
:1001BA0039C00E94D6010024001601062CF40E94C0
:1001CA00C30101501040F7CF2DC00E94B7010E9411
:1001DA00BE0128F40E94DB010F5F1F4FF8CF22C037
:1001EA000E94D6010024001601062CF40E94DB01AD
:1001FA0001501040F7CF16C00E94B7010E94BE01FD
:10020A0028F40E94EA010F5F1F4FF8CF0BC00E942B
:10021A00D6010024001601062CF40E94EA010150BE
:10022A001040F7CF19810881249608950E94F90198
:10023A00E3DF0E94F901C9DF08950A921A92FA923D
:10024A006A937A938A939A93AA93BA93EA93FA93BC
:10025A00EFB7EA93829906C00E94F901D8DF0E949B
:10026A00F901BEDFE991EFBFF991E991B991A9913D
:10027A009991899179916991F990199009901895B4
:10028A00E0E0EBBBEABBE8BBE7BBE5BBEFEFE4BBF7
:10029A00ECEBE2BBE0EBE1BBE5E0E3BFE0E0E2BFB1
:1002AA00ECBFEFBDEEBDEDBDECBDE7BDE6BDEBBD00
:1002BA00EABDE9BDE8BDE2BDE5BDE4BDE3BDE5BF1C
:1002CA00E4BFE1E0E9BFE0E0EBB9E8EDEAB9E6E86E
:1002DA00E0BDE0E0E0BDE3E3E9B9E0E8E8B9E0E089
:1002EA00E0BFE6B9EDB9E6BF7894A0DF959A77202A
:1002FA00F1F32ADFBE2E9598AA24DD24CC24EB2D17
:10030A00F0E0E136A0E0FA0721F40E94FE0174DF72
:10031A0027C0E236A0E0FA0721F40E94FE0177DF47
:10032A001FC0E336A0E0FA0721F40E94FE014DDF68
:10033A0017C0E436A0E0FA0721F40E94FE0150DF5C
:10034A000FC0E536A0E0FA0721F40E94FE0126DF7D
:10035A0007C0E636A0E0FA0719F40E94FE0129DF79
:10036A00C5CFFFCF1A930A9300E010E000E010E037
:10037A000895EA81FB810E171F070895D801E8E066
:10038A00F0E00E942702A0E7B1E0EE0FFF1FAE0FD8
:10039A00BF1FEC91E5BBE3E0F0E0FA93EA930C941B
:1003AA0004021A930A930A811B810895D801E8E08E
:1003BA00F0E00E942702E058FE4FE081E5BBE5E04D
:1003CA00F0E0FA93EA930C940402D801E8E0F0E032
:1003DA000E942702E857FE4FE081EBBBE2E0F0E023
:1003EA00FA93EA930C940402E2E1F2E0FA93EA93B4
:1003FA000895E0919001F0E0FA93EA930895E99163
:10040A00F991309639F080ED97E00197F1F7A895C8
:10041A003197C9F70895F195E195F04008950024C0
:10042A00112490E1AA0FBB1F001C111C0E1A1F0AEF
:10043A0018F40E0E1F1E01C0A1609A9599F7FD01CE
:10044A00D0010895E894B7FF04C0A095B09511961D
:10045A006894F7FDE0DFE3DFFD010EF4DCDF0895C9
:00000001FF
