:080000000C9444000C94000074
:100008000C9400000C9400000C9400000C94000068
:100018000C9400000C9400000C9400000C94000058
:100028000C9400000C9400000C9400000C94000048
:100038000C9400000C9400000C9400000C94000038
:100048000C9400000C9400000C94000009000100BE
:1000580005000400060002000A0008009010504045
:100068006020A080901050406020A0800F006001A8
:100078005400080070016400080078016C0000005A
:10008800F894EE27ECBBF1E0FBBFEBBFE5BFF8E16E
:10009800F1BDE1BD8DE0A2E0BB27ED938A95E9F7BC
:1000A80080E094E0A0E6ED930197E9F7E4E7F0E05B
:1000B80085919591009761F0A591B591059015905E
:1000C800BF01F00105900D920197E1F7FB01F0CF18
:1000D800EFE5EDBFE4E0EEBFC0E6D1E00C94AD0083
:1000E80077D07DD020F480D00F5F1F4FFACF2DC07E
:1000F8008ED000240016010624F476D0015010405A
:10010800F8CF23C065D06BD020F486D00F5F1F4F87
:10011800FACF1BC07CD000240016010624F47CD042
:1001280001501040F8CF11C053D059D020F483D0DB
:100138000F5F1F4FFACF09C06AD0002400160106CE
:1001480024F479D001501040F8CF19810881249601
:100158000895E0E0EBBBEABBE8BBE7BBE5BBEFEF2C
:10016800E4BBECEBE2BBE0EBE1BBE0E0E3BFE2BF0A
:10017800ECBFEFBDEEBDEDBDECBDE7BDE6BDEBBD33
:10018800EABDE9BDE8BDE2BDE5BDE4BDE3BDE5BF4F
:10019800E4BFE9BFEAB9E0E8E8B9E0E0E0BFE6B902
:1001A800EDB9E6BFEFEFE5BB55D0B4DF53D0AADF1A
:1001B80051D0C2DF4FD0B8DFEEE1F0E0FA93EA9316
:1001C8008FDFEEE1F0E0FA93EA9392DFEDCFFFCF15
:1001D8001A930A9300E010E000E010E00895EA8125
:1001E800FB810E171F070895D801E8E0F0E00E9490
:1001F8005601A0E6B1E0EE0FFF1FAE0FBF1FEC9156
:10020800E5BBE3E0F0E0FA93EA930C9433011A9328
:100218000A930A811B810895D801E8E0F0E00E9462
:100228005601E059FE4FE081E5BBE5E0F0E0FA93C6
:10023800EA930C943301D801E8E0F0E00E945601FB
:10024800E858FE4FE081EBBBE2E0F0E0FA93EA9376
:100258000C943301E2E1F2E0FA93EA930895E9910C
:10026800F991309639F080ED97E00197F1F7A8956C
:100278003197C9F70895F195E195F0400895002464
:10028800112490E1AA0FBB1F001C111C0E1A1F0A93
:1002980018F40E0E1F1E01C0A1609A9599F7FD0172
:1002A800D0010895E894B7FF04C0A095B0951196C1
:1002B8006894F7FDE0DFE3DFFD010EF4DCDF08956D
:00000001FF
